{
  "_format": "hh-sol-artifact-1",
  "contractName": "OrganDonation",
  "sourceName": "contracts/OrganDonation.sol",
  "address": "0x4d9edD99f41253e0CFD9343BAdaB6f13B1A1E4c0",
  "abi": [
    {
      "anonymous": false,
      "inputs": [
        {
          "indexed": true,
          "internalType": "address",
          "name": "donorAddress",
          "type": "address"
        },
        {
          "indexed": false,
          "internalType": "string",
          "name": "name",
          "type": "string"
        },
        {
          "indexed": false,
          "internalType": "string",
          "name": "organType",
          "type": "string"
        }
      ],
      "name": "DonorRegistered",
      "type": "event"
    },
    {
      "anonymous": false,
      "inputs": [
        {
          "indexed": false,
          "internalType": "address",
          "name": "donor",
          "type": "address"
        },
        {
          "indexed": false,
          "internalType": "address",
          "name": "recipient",
          "type": "address"
        }
      ],
      "name": "MatchSuccessful",
      "type": "event"
    },
    {
      "anonymous": false,
      "inputs": [
        {
          "indexed": true,
          "internalType": "address",
          "name": "recipientAddress",
          "type": "address"
        },
        {
          "indexed": false,
          "internalType": "string",
          "name": "name",
          "type": "string"
        },
        {
          "indexed": false,
          "internalType": "string",
          "name": "organType",
          "type": "string"
        }
      ],
      "name": "RecipientRegistered",
      "type": "event"
    },
    {
      "anonymous": false,
      "inputs": [
        {
          "indexed": false,
          "internalType": "address",
          "name": "recipient",
          "type": "address"
        },
        {
          "indexed": false,
          "internalType": "address",
          "name": "donor",
          "type": "address"
        }
      ],
      "name": "RequestSent",
      "type": "event"
    },
    {
      "inputs": [
        {
          "internalType": "uint256",
          "name": "",
          "type": "uint256"
        }
      ],
      "name": "donorAddresses",
      "outputs": [
        {
          "internalType": "address",
          "name": "",
          "type": "address"
        }
      ],
      "stateMutability": "view",
      "type": "function"
    },
    {
      "inputs": [
        {
          "internalType": "address",
          "name": "",
          "type": "address"
        }
      ],
      "name": "donors",
      "outputs": [
        {
          "internalType": "address",
          "name": "selfAddress",
          "type": "address"
        },
        {
          "internalType": "string",
          "name": "name",
          "type": "string"
        },
        {
          "internalType": "uint256",
          "name": "age",
          "type": "uint256"
        },
        {
          "internalType": "string",
          "name": "email",
          "type": "string"
        },
        {
          "internalType": "string",
          "name": "organType",
          "type": "string"
        },
        {
          "internalType": "bool",
          "name": "isAvailable",
          "type": "bool"
        },
        {
          "internalType": "address",
          "name": "matchedAddress",
          "type": "address"
        }
      ],
      "stateMutability": "view",
      "type": "function"
    },
    {
      "inputs": [
        {
          "internalType": "string",
          "name": "_organ",
          "type": "string"
        }
      ],
      "name": "findDonorsMatch",
      "outputs": [
        {
          "internalType": "string[]",
          "name": "",
          "type": "string[]"
        }
      ],
      "stateMutability": "view",
      "type": "function"
    },
    {
      "inputs": [],
      "name": "findMatch",
      "outputs": [
        {
          "internalType": "address[]",
          "name": "",
          "type": "address[]"
        }
      ],
      "stateMutability": "view",
      "type": "function"
    },
    {
      "inputs": [
        {
          "internalType": "address",
          "name": "_address",
          "type": "address"
        }
      ],
      "name": "getDonorDetails",
      "outputs": [
        {
          "components": [
            {
              "internalType": "address",
              "name": "selfAddress",
              "type": "address"
            },
            {
              "internalType": "string",
              "name": "name",
              "type": "string"
            },
            {
              "internalType": "uint256",
              "name": "age",
              "type": "uint256"
            },
            {
              "internalType": "string",
              "name": "email",
              "type": "string"
            },
            {
              "internalType": "string",
              "name": "organType",
              "type": "string"
            },
            {
              "internalType": "bool",
              "name": "isAvailable",
              "type": "bool"
            },
            {
              "internalType": "address",
              "name": "matchedAddress",
              "type": "address"
            },
            {
              "internalType": "address[]",
              "name": "sentRequests",
              "type": "address[]"
            }
          ],
          "internalType": "struct OrganDonation.Donor",
          "name": "",
          "type": "tuple"
        }
      ],
      "stateMutability": "view",
      "type": "function"
    },
    {
      "inputs": [
        {
          "internalType": "address",
          "name": "_address",
          "type": "address"
        }
      ],
      "name": "getRecipientDetails",
      "outputs": [
        {
          "components": [
            {
              "internalType": "address",
              "name": "selfAddress",
              "type": "address"
            },
            {
              "internalType": "string",
              "name": "name",
              "type": "string"
            },
            {
              "internalType": "uint256",
              "name": "age",
              "type": "uint256"
            },
            {
              "internalType": "string",
              "name": "email",
              "type": "string"
            },
            {
              "internalType": "string",
              "name": "organType",
              "type": "string"
            },
            {
              "internalType": "bool",
              "name": "isAvailable",
              "type": "bool"
            },
            {
              "internalType": "address",
              "name": "matchAddress",
              "type": "address"
            },
            {
              "internalType": "address[]",
              "name": "requests",
              "type": "address[]"
            }
          ],
          "internalType": "struct OrganDonation.Recipient",
          "name": "",
          "type": "tuple"
        }
      ],
      "stateMutability": "view",
      "type": "function"
    },
    {
      "inputs": [
        {
          "internalType": "address",
          "name": "_userAddress",
          "type": "address"
        }
      ],
      "name": "isDonorRegistered",
      "outputs": [
        {
          "internalType": "bool",
          "name": "",
          "type": "bool"
        }
      ],
      "stateMutability": "view",
      "type": "function"
    },
    {
      "inputs": [
        {
          "internalType": "address",
          "name": "_userAddress",
          "type": "address"
        }
      ],
      "name": "isRecipientRegistered",
      "outputs": [
        {
          "internalType": "bool",
          "name": "",
          "type": "bool"
        }
      ],
      "stateMutability": "view",
      "type": "function"
    },
    {
      "inputs": [
        {
          "internalType": "uint256",
          "name": "",
          "type": "uint256"
        }
      ],
      "name": "recipientAddresses",
      "outputs": [
        {
          "internalType": "address",
          "name": "",
          "type": "address"
        }
      ],
      "stateMutability": "view",
      "type": "function"
    },
    {
      "inputs": [
        {
          "internalType": "address",
          "name": "",
          "type": "address"
        }
      ],
      "name": "recipients",
      "outputs": [
        {
          "internalType": "address",
          "name": "selfAddress",
          "type": "address"
        },
        {
          "internalType": "string",
          "name": "name",
          "type": "string"
        },
        {
          "internalType": "uint256",
          "name": "age",
          "type": "uint256"
        },
        {
          "internalType": "string",
          "name": "email",
          "type": "string"
        },
        {
          "internalType": "string",
          "name": "organType",
          "type": "string"
        },
        {
          "internalType": "bool",
          "name": "isAvailable",
          "type": "bool"
        },
        {
          "internalType": "address",
          "name": "matchAddress",
          "type": "address"
        }
      ],
      "stateMutability": "view",
      "type": "function"
    },
    {
      "inputs": [
        {
          "internalType": "string",
          "name": "_name",
          "type": "string"
        },
        {
          "internalType": "uint256",
          "name": "_age",
          "type": "uint256"
        },
        {
          "internalType": "string",
          "name": "_organType",
          "type": "string"
        },
        {
          "internalType": "string",
          "name": "_email",
          "type": "string"
        }
      ],
      "name": "registerDonor",
      "outputs": [],
      "stateMutability": "nonpayable",
      "type": "function"
    },
    {
      "inputs": [
        {
          "internalType": "string",
          "name": "_name",
          "type": "string"
        },
        {
          "internalType": "uint256",
          "name": "_age",
          "type": "uint256"
        },
        {
          "internalType": "string",
          "name": "_organType",
          "type": "string"
        },
        {
          "internalType": "string",
          "name": "_email",
          "type": "string"
        }
      ],
      "name": "registerRecipient",
      "outputs": [],
      "stateMutability": "nonpayable",
      "type": "function"
    },
    {
      "inputs": [
        {
          "internalType": "address",
          "name": "_recipientAddress",
          "type": "address"
        }
      ],
      "name": "sendRequest",
      "outputs": [],
      "stateMutability": "nonpayable",
      "type": "function"
    },
    {
      "inputs": [
        {
          "internalType": "address",
          "name": "_donorAddress",
          "type": "address"
        }
      ],
      "name": "tryMatch",
      "outputs": [],
      "stateMutability": "nonpayable",
      "type": "function"
    }
  ],
  "bytecode": "0x608060405234801561001057600080fd5b506121a5806100206000396000f3fe608060405234801561001057600080fd5b50600436106100ea5760003560e01c806395950dfd1161008c578063b9bd12e411610066578063b9bd12e41461022e578063ca0cdea814610241578063dad9fef014610267578063eb8203121461027a57600080fd5b806395950dfd146101d95780639935cd3c146101f9578063afcb67d31461020e57600080fd5b80633beb128f116100c85780633beb128f146101725780636f08b7dd146101855780636fc6ad41146101b357806385e1b15b146101c657600080fd5b80630c18f81e146100ef578063213e899f146101045780632b2aee5d14610147575b600080fd5b6101026100fd366004611a72565b61028d565b005b610132610112366004611a72565b6001600160a01b0390811660009081526001602052604090205416151590565b60405190151581526020015b60405180910390f35b61015a610155366004611aa2565b6105a9565b6040516001600160a01b03909116815260200161013e565b61015a610180366004611aa2565b6105d3565b610132610193366004611a72565b6001600160a01b0390811660009081526020819052604090205416151590565b6101026101c1366004611b5e565b6105e3565b6101026101d4366004611a72565b6109a3565b6101ec6101e7366004611bf0565b610bcf565b60405161013e9190611c89565b610201610ebc565b60405161013e9190611ceb565b61022161021c366004611a72565b611103565b60405161013e9190611e35565b61022161023c366004611a72565b6113e8565b61025461024f366004611a72565b611487565b60405161013e9796959493929190611e48565b610102610275366004611b5e565b611673565b610254610288366004611a72565b611958565b336000818152602081905260409020546001600160a01b03166102f75760405162461bcd60e51b815260206004820152601c60248201527f526563697069656e74206d75737420626520726567697374657265640000000060448201526064015b60405180910390fd5b6001600160a01b03808316600090815260016020526040902054166103595760405162461bcd60e51b8152602060048201526018602482015277111bdb9bdc881b5d5cdd081899481c9959da5cdd195c995960421b60448201526064016102ee565b6001600160a01b03821660009081526001602052604090206005015460ff166103bf5760405162461bcd60e51b8152602060048201526018602482015277111bdb9bdc881a5cc8185b1c9958591e481b585d18da195960421b60448201526064016102ee565b6001600160a01b03811660009081526020819052604090206005015460ff1661043c5760405162461bcd60e51b815260206004820152602960248201527f526563697069656e74206973206e6f7420617661696c61626c6520666f722061604482015268103a3930b739b332b960b91b60648201526084016102ee565b6001600160a01b038116600090815260208181526040918290209151610466926004019101611eee565b60408051601f1981840301815282825280516020918201206001600160a01b0386166000908152600183529290922091926104a5926004019101611eee565b60405160208183030381529060405280519060200120146105085760405162461bcd60e51b815260206004820152601860248201527f4f7267616e20747970657320646f206e6f74206d61746368000000000000000060448201526064016102ee565b6001600160a01b0382811660008181526001602090815260408083206005908101805460ff19908116825596881680865285855294839020909101805490961686558054610100808602610100600160a81b031992831617909255865491860291161790945583519182528101919091527f67bf4c9cafec73f79599e54d1ae0193423aa82029ae3b941bf75e91f24455a9691015b60405180910390a15050565b600281815481106105b957600080fd5b6000918252602090912001546001600160a01b0316905081565b600381815481106105b957600080fd5b60008451116106275760405162461bcd60e51b815260206004820152601060248201526f13985b59481a5cc81c995c5d5a5c995960821b60448201526064016102ee565b60128310156106785760405162461bcd60e51b815260206004820152601b60248201527f416765206d7573742062652067726561746572207468616e203138000000000060448201526064016102ee565b60008251116106c25760405162461bcd60e51b815260206004820152601660248201527513dc99d85b881d1e5c19481a5cc81c995c5d5a5c995960521b60448201526064016102ee565b336000908152602081905260409020546001600160a01b0316156107285760405162461bcd60e51b815260206004820152601f60248201527f526563697069656e7420697320616c726561647920726567697374657265640060448201526064016102ee565b6040805161010081018252338082526020808301888152838501889052606080850187905260808501889052600160a08601819052600060c0870181905260e0870183905294855284845295909320845181546001600160a01b0319166001600160a01b0390911617815590518051939591936107ad93928501929190910190611984565b5060408201516002820155606082015180516107d3916003840191602090910190611984565b50608082015180516107ef916004840191602090910190611984565b5060a082015160058201805460c08501516001600160a01b031661010002610100600160a81b0319931515939093166001600160a81b03199091161791909117905560e0820151805161084c916006840191602090910190611a08565b5050600380546001810182556000919091527fc2575a0e9e593c00f959f8c92f12db2869c3395a3b0502d05e2516446f71f85b0180546001600160a01b0319163390811790915560405173b3971bcef2d791bc4027bbfedfb47319a4aaaaaa925063ba3d69d79173d2068cd6a0d540cdf81c334aa6c19735401d84e4916108dd908a908a9089908b90602001611f8a565b60408051601f19818403018152908290526108fa91602001612048565b6040516020818303038152906040526040518463ffffffff1660e01b8152600401610927939291906120c3565b600060405180830381600087803b15801561094157600080fd5b505af1158015610955573d6000803e3d6000fd5b50505050336001600160a01b03167f3d6c00385d301f1858baacd01dda41805dc22f9eab6b3c86afd92e8b57c8502b86856040516109949291906120ef565b60405180910390a25050505050565b6001600160a01b0380821660009081526020819052604090205416610a0a5760405162461bcd60e51b815260206004820152601b60248201527f526563697069656e74206973206e6f742072656769737465726564000000000060448201526064016102ee565b6001600160a01b038116600081815260208190526040902090331415610a805760405162461bcd60e51b815260206004820152602560248201527f596f752063616e6e6f742073656e642061207265717565737420746f20796f756044820152643939b2b63360d91b60648201526084016102ee565b60005b6006820154811015610b3d57336001600160a01b0316826006018281548110610aae57610aae612114565b6000918252602090912001546001600160a01b03161415610b2b5760405162461bcd60e51b815260206004820152603160248201527f596f75206861766520616c72656164792073656e7420612072657175657374206044820152701d1bc81d1a1a5cc81c9958da5c1a595b9d607a1b60648201526084016102ee565b80610b358161212a565b915050610a83565b5060068181018054600180820183556000928352602080842090920180546001600160a01b03199081163390811790925581855282845260408086209096018054938401815585529383902090910180546001600160a01b0388169416841790558351928352908201527f8e80944630a2faa57965ab9ebd299ad0b033ff10bf238eefa5531254f86a88e5910161059d565b60606000805b600254811015610cb757600060028281548110610bf457610bf4612114565b60009182526020808320909101546001600160a01b0316808352600190915260409091206005015490915060ff168015610c91575084604051602001610c3a9190612153565b60408051601f1981840301815282825280516020918201206001600160a01b038516600090815260018352929092209192610c79926004019101611eee565b60405160208183030381529060405280519060200120145b15610ca45782610ca08161212a565b9350505b5080610caf8161212a565b915050610bd5565b5060008167ffffffffffffffff811115610cd357610cd3611abb565b604051908082528060200260200182016040528015610d0657816020015b6060815260200190600190039081610cf15790505b5090506000915060005b600254811015610eb457600060028281548110610d2f57610d2f612114565b60009182526020808320909101546001600160a01b0316808352600190915260409091206005015490915060ff168015610dcc575085604051602001610d759190612153565b60408051601f1981840301815282825280516020918201206001600160a01b038516600090815260018352929092209192610db4926004019101611eee565b60405160208183030381529060405280519060200120145b15610ea1576001600160a01b03811660009081526001602052604090206003018054610df790611eb3565b80601f0160208091040260200160405190810160405280929190818152602001828054610e2390611eb3565b8015610e705780601f10610e4557610100808354040283529160200191610e70565b820191906000526020600020905b815481529060010190602001808311610e5357829003601f168201915b5050505050838581518110610e8757610e87612114565b60200260200101819052508380610e9d9061212a565b9450505b5080610eac8161212a565b915050610d10565b509392505050565b33600081815260016020526040902054606091906001600160a01b0316610f205760405162461bcd60e51b8152602060048201526018602482015277111bdb9bdc881b5d5cdd081899481c9959da5cdd195c995960421b60448201526064016102ee565b6001600160a01b03811660009081526001602052604090206005015460ff16610f865760405162461bcd60e51b8152602060048201526018602482015277111bdb9bdc881a5cc8185b1c9958591e481b585d18da195960421b60448201526064016102ee565b60035460009067ffffffffffffffff811115610fa457610fa4611abb565b604051908082528060200260200182016040528015610fcd578160200160208202803683370190505b5090506000805b6003548110156110fa57600060038281548110610ff357610ff3612114565b60009182526020808320909101546001600160a01b03168083529082905260409091206005015490915060ff1680156110a957506001600160a01b0385166000908152600160209081526040918290209151611053926004019101611eee565b60408051601f1981840301815282825280516020918201206001600160a01b0385166000908152808352929092209192611091926004019101611eee565b60405160208183030381529060405280519060200120145b156110e757808484815181106110c1576110c1612114565b6001600160a01b0390921660209283029190910190910152826110e38161212a565b9350505b50806110f28161212a565b915050610fd4565b50815292915050565b61115f60405180610100016040528060006001600160a01b031681526020016060815260200160008152602001606081526020016060815260200160001515815260200160006001600160a01b03168152602001606081525090565b6001600160a01b0380831660009081526001602081815260408084208151610100810190925280549095168152918401805493949293918401916111a290611eb3565b80601f01602080910402602001604051908101604052809291908181526020018280546111ce90611eb3565b801561121b5780601f106111f05761010080835404028352916020019161121b565b820191906000526020600020905b8154815290600101906020018083116111fe57829003601f168201915b505050505081526020016002820154815260200160038201805461123e90611eb3565b80601f016020809104026020016040519081016040528092919081815260200182805461126a90611eb3565b80156112b75780601f1061128c576101008083540402835291602001916112b7565b820191906000526020600020905b81548152906001019060200180831161129a57829003601f168201915b505050505081526020016004820180546112d090611eb3565b80601f01602080910402602001604051908101604052809291908181526020018280546112fc90611eb3565b80156113495780601f1061131e57610100808354040283529160200191611349565b820191906000526020600020905b81548152906001019060200180831161132c57829003601f168201915b5050509183525050600582015460ff811615156020808401919091526101009091046001600160a01b031660408084019190915260068401805482518185028101850190935280835260609094019391929091908301828280156113d657602002820191906000526020600020905b81546001600160a01b031681526001909101906020018083116113b8575b50505091909252509195945050505050565b61144460405180610100016040528060006001600160a01b031681526020016060815260200160008152602001606081526020016060815260200160001515815260200160006001600160a01b03168152602001606081525090565b6001600160a01b0380831660009081526020818152604080832081516101008101909252805490941681526001840180549394919391928401916111a290611eb3565b6001602081905260009182526040909120805491810180546001600160a01b03909316926114b490611eb3565b80601f01602080910402602001604051908101604052809291908181526020018280546114e090611eb3565b801561152d5780601f106115025761010080835404028352916020019161152d565b820191906000526020600020905b81548152906001019060200180831161151057829003601f168201915b50505050509080600201549080600301805461154890611eb3565b80601f016020809104026020016040519081016040528092919081815260200182805461157490611eb3565b80156115c15780601f10611596576101008083540402835291602001916115c1565b820191906000526020600020905b8154815290600101906020018083116115a457829003601f168201915b5050505050908060040180546115d690611eb3565b80601f016020809104026020016040519081016040528092919081815260200182805461160290611eb3565b801561164f5780601f106116245761010080835404028352916020019161164f565b820191906000526020600020905b81548152906001019060200180831161163257829003601f168201915b5050506005909301549192505060ff8116906001600160a01b036101009091041687565b60008451116116b75760405162461bcd60e51b815260206004820152601060248201526f13985b59481a5cc81c995c5d5a5c995960821b60448201526064016102ee565b60128310156117085760405162461bcd60e51b815260206004820152601b60248201527f416765206d7573742062652067726561746572207468616e203138000000000060448201526064016102ee565b60008251116117525760405162461bcd60e51b815260206004820152601660248201527513dc99d85b881d1e5c19481a5cc81c995c5d5a5c995960521b60448201526064016102ee565b336000908152600160205260409020546001600160a01b0316156117b85760405162461bcd60e51b815260206004820152601b60248201527f446f6e6f7220697320616c72656164792072656769737465726564000000000060448201526064016102ee565b6040805161010081018252338082526020808301888152838501889052606080850187905260808501889052600160a08601819052600060c0870181905260e0870183905294855280845295909320845181546001600160a01b0319166001600160a01b03909116178155905180519395919361183d93928501929190910190611984565b506040820151600282015560608201518051611863916003840191602090910190611984565b506080820151805161187f916004840191602090910190611984565b5060a082015160058201805460c08501516001600160a01b031661010002610100600160a81b0319931515939093166001600160a81b03199091161791909117905560e082015180516118dc916006840191602090910190611a08565b5050600280546001810182556000919091527f405787fa12a823e0f2b7631cc41b3ba8828b3321ca811111fa75cd3aa3bb5ace0180546001600160a01b031916339081179091556040519091507f7cefa9d45415496742c108166cfd8e4bae2f2089a47b4b375e65d407bdbdace59061099490889087906120ef565b600060208190529081526040902080546001820180546001600160a01b0390921692916114b490611eb3565b82805461199090611eb3565b90600052602060002090601f0160209004810192826119b257600085556119f8565b82601f106119cb57805160ff19168380011785556119f8565b828001600101855582156119f8579182015b828111156119f85782518255916020019190600101906119dd565b50611a04929150611a5d565b5090565b8280548282559060005260206000209081019282156119f8579160200282015b828111156119f857825182546001600160a01b0319166001600160a01b03909116178255602090920191600190910190611a28565b5b80821115611a045760008155600101611a5e565b600060208284031215611a8457600080fd5b81356001600160a01b0381168114611a9b57600080fd5b9392505050565b600060208284031215611ab457600080fd5b5035919050565b634e487b7160e01b600052604160045260246000fd5b600082601f830112611ae257600080fd5b813567ffffffffffffffff80821115611afd57611afd611abb565b604051601f8301601f19908116603f01168101908282118183101715611b2557611b25611abb565b81604052838152866020858801011115611b3e57600080fd5b836020870160208301376000602085830101528094505050505092915050565b60008060008060808587031215611b7457600080fd5b843567ffffffffffffffff80821115611b8c57600080fd5b611b9888838901611ad1565b9550602087013594506040870135915080821115611bb557600080fd5b611bc188838901611ad1565b93506060870135915080821115611bd757600080fd5b50611be487828801611ad1565b91505092959194509250565b600060208284031215611c0257600080fd5b813567ffffffffffffffff811115611c1957600080fd5b611c2584828501611ad1565b949350505050565b60005b83811015611c48578181015183820152602001611c30565b83811115611c57576000848401525b50505050565b60008151808452611c75816020860160208601611c2d565b601f01601f19169290920160200192915050565b6000602080830181845280855180835260408601915060408160051b870101925083870160005b82811015611cde57603f19888603018452611ccc858351611c5d565b94509285019290850190600101611cb0565b5092979650505050505050565b6020808252825182820181905260009190848201906040850190845b81811015611d2c5783516001600160a01b031683529284019291840191600101611d07565b50909695505050505050565b600081518084526020808501945080840160005b83811015611d715781516001600160a01b031687529582019590820190600101611d4c565b509495945050505050565b80516001600160a01b0316825260006101006020830151816020860152611da582860182611c5d565b9150506040830151604085015260608301518482036060860152611dc98282611c5d565b91505060808301518482036080860152611de38282611c5d565b91505060a0830151611df960a086018215159052565b5060c0830151611e1460c08601826001600160a01b03169052565b5060e083015184820360e0860152611e2c8282611d38565b95945050505050565b602081526000611a9b6020830184611d7c565b600060018060a01b03808a16835260e06020840152611e6a60e084018a611c5d565b8860408501528381036060850152611e828189611c5d565b90508381036080850152611e968188611c5d565b95151560a0850152509290921660c0909101525095945050505050565b600181811c90821680611ec757607f821691505b60208210811415611ee857634e487b7160e01b600052602260045260246000fd5b50919050565b600080835481600182811c915080831680611f0a57607f831692505b6020808410821415611f2a57634e487b7160e01b86526022600452602486fd5b818015611f3e5760018114611f4f57611f7c565b60ff19861689528489019650611f7c565b60008a81526020902060005b86811015611f745781548b820152908501908301611f5b565b505084890196505b509498975050505050505050565b7f596f75206172652072656769737465726564207375636365737366756c6c7920815262030b9960ed1b602082015260008551611fce816023850160208a01611c2d565b8083019050650161030b3b2960d51b6023820152856029820152670161032b6b0b4b6160c51b6049820152845161200c816051840160208901611c2d565b6c0161037b933b0b7103a3cb8329609d1b60519290910191820152835161203a81605e840160208801611c2d565b01605e019695505050505050565b600360fc1b81526000602b60f81b806001840152603360f81b60028401528060038401527f526563697069656e7420526567697374726174696f6e205375636365737366756004840152601b60fa1b60248401528060258401525082516120b6816026850160208701611c2d565b9190910160260192915050565b6001600160a01b03848116825283166020820152606060408201819052600090611e2c90830184611c5d565b6040815260006121026040830185611c5d565b8281036020840152611e2c8185611c5d565b634e487b7160e01b600052603260045260246000fd5b600060001982141561214c57634e487b7160e01b600052601160045260246000fd5b5060010190565b60008251612165818460208701611c2d565b919091019291505056fea264697066735822122080e7472f40102479ce79b31d0e31807a804ae7c8da6a2cc5885313242c9de8b064736f6c63430008090033",
  "linkReferences": {},
  "deployedLinkReferences": {}
}