{
  "_format": "hh-sol-artifact-1",
  "contractName": "OrganDonation",
  "sourceName": "contracts/OrganDonation.sol",
  "address": "0x88d3BFF3CaF3235133297ac41A756380ccBE61E3",
  "abi": [
    {
      "anonymous": false,
      "inputs": [
        {
          "indexed": true,
          "internalType": "address",
          "name": "donorAddress",
          "type": "address"
        },
        {
          "indexed": false,
          "internalType": "string",
          "name": "name",
          "type": "string"
        },
        {
          "indexed": false,
          "internalType": "string",
          "name": "organType",
          "type": "string"
        }
      ],
      "name": "DonorRegistered",
      "type": "event"
    },
    {
      "anonymous": false,
      "inputs": [
        {
          "indexed": false,
          "internalType": "address",
          "name": "donor",
          "type": "address"
        },
        {
          "indexed": false,
          "internalType": "address",
          "name": "recipient",
          "type": "address"
        }
      ],
      "name": "MatchSuccessful",
      "type": "event"
    },
    {
      "anonymous": false,
      "inputs": [
        {
          "indexed": true,
          "internalType": "address",
          "name": "recipientAddress",
          "type": "address"
        },
        {
          "indexed": false,
          "internalType": "string",
          "name": "name",
          "type": "string"
        },
        {
          "indexed": false,
          "internalType": "string",
          "name": "organType",
          "type": "string"
        }
      ],
      "name": "RecipientRegistered",
      "type": "event"
    },
    {
      "anonymous": false,
      "inputs": [
        {
          "indexed": false,
          "internalType": "address",
          "name": "recipient",
          "type": "address"
        },
        {
          "indexed": false,
          "internalType": "address",
          "name": "donor",
          "type": "address"
        }
      ],
      "name": "RequestSent",
      "type": "event"
    },
    {
      "inputs": [
        {
          "internalType": "uint256",
          "name": "",
          "type": "uint256"
        }
      ],
      "name": "donorAddresses",
      "outputs": [
        {
          "internalType": "address",
          "name": "",
          "type": "address"
        }
      ],
      "stateMutability": "view",
      "type": "function"
    },
    {
      "inputs": [
        {
          "internalType": "address",
          "name": "",
          "type": "address"
        }
      ],
      "name": "donors",
      "outputs": [
        {
          "internalType": "address",
          "name": "selfAddress",
          "type": "address"
        },
        {
          "internalType": "string",
          "name": "name",
          "type": "string"
        },
        {
          "internalType": "uint256",
          "name": "age",
          "type": "uint256"
        },
        {
          "internalType": "string",
          "name": "email",
          "type": "string"
        },
        {
          "internalType": "string",
          "name": "organType",
          "type": "string"
        },
        {
          "internalType": "bool",
          "name": "isAvailable",
          "type": "bool"
        },
        {
          "internalType": "address",
          "name": "matchedAddress",
          "type": "address"
        }
      ],
      "stateMutability": "view",
      "type": "function"
    },
    {
      "inputs": [
        {
          "internalType": "string",
          "name": "_organ",
          "type": "string"
        }
      ],
      "name": "findDonorsMatch",
      "outputs": [
        {
          "internalType": "string[]",
          "name": "",
          "type": "string[]"
        }
      ],
      "stateMutability": "view",
      "type": "function"
    },
    {
      "inputs": [],
      "name": "findMatch",
      "outputs": [
        {
          "internalType": "address[]",
          "name": "",
          "type": "address[]"
        }
      ],
      "stateMutability": "view",
      "type": "function"
    },
    {
      "inputs": [
        {
          "internalType": "address",
          "name": "_address",
          "type": "address"
        }
      ],
      "name": "getDonorDetails",
      "outputs": [
        {
          "components": [
            {
              "internalType": "address",
              "name": "selfAddress",
              "type": "address"
            },
            {
              "internalType": "string",
              "name": "name",
              "type": "string"
            },
            {
              "internalType": "uint256",
              "name": "age",
              "type": "uint256"
            },
            {
              "internalType": "string",
              "name": "email",
              "type": "string"
            },
            {
              "internalType": "string",
              "name": "organType",
              "type": "string"
            },
            {
              "internalType": "bool",
              "name": "isAvailable",
              "type": "bool"
            },
            {
              "internalType": "address",
              "name": "matchedAddress",
              "type": "address"
            },
            {
              "internalType": "address[]",
              "name": "sentRequests",
              "type": "address[]"
            }
          ],
          "internalType": "struct OrganDonation.Donor",
          "name": "",
          "type": "tuple"
        }
      ],
      "stateMutability": "view",
      "type": "function"
    },
    {
      "inputs": [
        {
          "internalType": "address",
          "name": "_address",
          "type": "address"
        }
      ],
      "name": "getRecipientDetails",
      "outputs": [
        {
          "components": [
            {
              "internalType": "address",
              "name": "selfAddress",
              "type": "address"
            },
            {
              "internalType": "string",
              "name": "name",
              "type": "string"
            },
            {
              "internalType": "uint256",
              "name": "age",
              "type": "uint256"
            },
            {
              "internalType": "string",
              "name": "email",
              "type": "string"
            },
            {
              "internalType": "string",
              "name": "organType",
              "type": "string"
            },
            {
              "internalType": "bool",
              "name": "isAvailable",
              "type": "bool"
            },
            {
              "internalType": "address",
              "name": "matchAddress",
              "type": "address"
            },
            {
              "internalType": "address[]",
              "name": "requests",
              "type": "address[]"
            }
          ],
          "internalType": "struct OrganDonation.Recipient",
          "name": "",
          "type": "tuple"
        }
      ],
      "stateMutability": "view",
      "type": "function"
    },
    {
      "inputs": [
        {
          "internalType": "address",
          "name": "_userAddress",
          "type": "address"
        }
      ],
      "name": "isDonorRegistered",
      "outputs": [
        {
          "internalType": "bool",
          "name": "",
          "type": "bool"
        }
      ],
      "stateMutability": "view",
      "type": "function"
    },
    {
      "inputs": [
        {
          "internalType": "address",
          "name": "_userAddress",
          "type": "address"
        }
      ],
      "name": "isRecipientRegistered",
      "outputs": [
        {
          "internalType": "bool",
          "name": "",
          "type": "bool"
        }
      ],
      "stateMutability": "view",
      "type": "function"
    },
    {
      "inputs": [
        {
          "internalType": "uint256",
          "name": "",
          "type": "uint256"
        }
      ],
      "name": "recipientAddresses",
      "outputs": [
        {
          "internalType": "address",
          "name": "",
          "type": "address"
        }
      ],
      "stateMutability": "view",
      "type": "function"
    },
    {
      "inputs": [
        {
          "internalType": "address",
          "name": "",
          "type": "address"
        }
      ],
      "name": "recipients",
      "outputs": [
        {
          "internalType": "address",
          "name": "selfAddress",
          "type": "address"
        },
        {
          "internalType": "string",
          "name": "name",
          "type": "string"
        },
        {
          "internalType": "uint256",
          "name": "age",
          "type": "uint256"
        },
        {
          "internalType": "string",
          "name": "email",
          "type": "string"
        },
        {
          "internalType": "string",
          "name": "organType",
          "type": "string"
        },
        {
          "internalType": "bool",
          "name": "isAvailable",
          "type": "bool"
        },
        {
          "internalType": "address",
          "name": "matchAddress",
          "type": "address"
        }
      ],
      "stateMutability": "view",
      "type": "function"
    },
    {
      "inputs": [
        {
          "internalType": "string",
          "name": "_name",
          "type": "string"
        },
        {
          "internalType": "uint256",
          "name": "_age",
          "type": "uint256"
        },
        {
          "internalType": "string",
          "name": "_organType",
          "type": "string"
        },
        {
          "internalType": "string",
          "name": "_email",
          "type": "string"
        }
      ],
      "name": "registerDonor",
      "outputs": [],
      "stateMutability": "nonpayable",
      "type": "function"
    },
    {
      "inputs": [
        {
          "internalType": "string",
          "name": "_name",
          "type": "string"
        },
        {
          "internalType": "uint256",
          "name": "_age",
          "type": "uint256"
        },
        {
          "internalType": "string",
          "name": "_organType",
          "type": "string"
        },
        {
          "internalType": "string",
          "name": "_email",
          "type": "string"
        }
      ],
      "name": "registerRecipient",
      "outputs": [],
      "stateMutability": "nonpayable",
      "type": "function"
    },
    {
      "inputs": [
        {
          "internalType": "address",
          "name": "_recipientAddress",
          "type": "address"
        }
      ],
      "name": "sendRequest",
      "outputs": [],
      "stateMutability": "nonpayable",
      "type": "function"
    },
    {
      "inputs": [
        {
          "internalType": "address",
          "name": "_donorAddress",
          "type": "address"
        }
      ],
      "name": "tryMatch",
      "outputs": [],
      "stateMutability": "nonpayable",
      "type": "function"
    }
  ],
  "bytecode": "0x608060405234801561001057600080fd5b50611f74806100206000396000f3fe608060405234801561001057600080fd5b50600436106100ea5760003560e01c806395950dfd1161008c578063b9bd12e411610066578063b9bd12e41461022e578063ca0cdea814610241578063dad9fef014610267578063eb8203121461027a57600080fd5b806395950dfd146101d95780639935cd3c146101f9578063afcb67d31461020e57600080fd5b80633beb128f116100c85780633beb128f146101725780636f08b7dd146101855780636fc6ad41146101b357806385e1b15b146101c657600080fd5b80630c18f81e146100ef578063213e899f146101045780632b2aee5d14610147575b600080fd5b6101026100fd3660046119a6565b61028d565b005b6101326101123660046119a6565b6001600160a01b0390811660009081526001602052604090205416151590565b60405190151581526020015b60405180910390f35b61015a6101553660046119d6565b6105a9565b6040516001600160a01b03909116815260200161013e565b61015a6101803660046119d6565b6105d3565b6101326101933660046119a6565b6001600160a01b0390811660009081526020819052604090205416151590565b6101026101c1366004611a92565b6105e3565b6101026101d43660046119a6565b6108d7565b6101ec6101e7366004611b24565b610b03565b60405161013e9190611bbd565b610201610df0565b60405161013e9190611c1f565b61022161021c3660046119a6565b611037565b60405161013e9190611d69565b61022161023c3660046119a6565b61131c565b61025461024f3660046119a6565b6113bb565b60405161013e9796959493929190611d7c565b610102610275366004611a92565b6115a7565b6102546102883660046119a6565b61188c565b336000818152602081905260409020546001600160a01b03166102f75760405162461bcd60e51b815260206004820152601c60248201527f526563697069656e74206d75737420626520726567697374657265640000000060448201526064015b60405180910390fd5b6001600160a01b03808316600090815260016020526040902054166103595760405162461bcd60e51b8152602060048201526018602482015277111bdb9bdc881b5d5cdd081899481c9959da5cdd195c995960421b60448201526064016102ee565b6001600160a01b03821660009081526001602052604090206005015460ff166103bf5760405162461bcd60e51b8152602060048201526018602482015277111bdb9bdc881a5cc8185b1c9958591e481b585d18da195960421b60448201526064016102ee565b6001600160a01b03811660009081526020819052604090206005015460ff1661043c5760405162461bcd60e51b815260206004820152602960248201527f526563697069656e74206973206e6f7420617661696c61626c6520666f722061604482015268103a3930b739b332b960b91b60648201526084016102ee565b6001600160a01b038116600090815260208181526040918290209151610466926004019101611e22565b60408051601f1981840301815282825280516020918201206001600160a01b0386166000908152600183529290922091926104a5926004019101611e22565b60405160208183030381529060405280519060200120146105085760405162461bcd60e51b815260206004820152601860248201527f4f7267616e20747970657320646f206e6f74206d61746368000000000000000060448201526064016102ee565b6001600160a01b0382811660008181526001602090815260408083206005908101805460ff19908116825596881680865285855294839020909101805490961686558054610100808602610100600160a81b031992831617909255865491860291161790945583519182528101919091527f67bf4c9cafec73f79599e54d1ae0193423aa82029ae3b941bf75e91f24455a9691015b60405180910390a15050565b600281815481106105b957600080fd5b6000918252602090912001546001600160a01b0316905081565b600381815481106105b957600080fd5b60008451116106275760405162461bcd60e51b815260206004820152601060248201526f13985b59481a5cc81c995c5d5a5c995960821b60448201526064016102ee565b60128310156106785760405162461bcd60e51b815260206004820152601b60248201527f416765206d7573742062652067726561746572207468616e203138000000000060448201526064016102ee565b60008251116106c25760405162461bcd60e51b815260206004820152601660248201527513dc99d85b881d1e5c19481a5cc81c995c5d5a5c995960521b60448201526064016102ee565b336000908152602081905260409020546001600160a01b0316156107285760405162461bcd60e51b815260206004820152601f60248201527f526563697069656e7420697320616c726561647920726567697374657265640060448201526064016102ee565b6040805161010081018252338082526020808301888152838501889052606080850187905260808501889052600160a08601819052600060c0870181905260e0870183905294855284845295909320845181546001600160a01b0319166001600160a01b0390911617815590518051939591936107ad939285019291909101906118b8565b5060408201516002820155606082015180516107d39160038401916020909101906118b8565b50608082015180516107ef9160048401916020909101906118b8565b5060a082015160058201805460c08501516001600160a01b031661010002610100600160a81b0319931515939093166001600160a81b03199091161791909117905560e0820151805161084c91600684019160209091019061193c565b5050600380546001810182556000919091527fc2575a0e9e593c00f959f8c92f12db2869c3395a3b0502d05e2516446f71f85b0180546001600160a01b031916339081179091556040519091507f3d6c00385d301f1858baacd01dda41805dc22f9eab6b3c86afd92e8b57c8502b906108c89088908790611ebe565b60405180910390a25050505050565b6001600160a01b038082166000908152602081905260409020541661093e5760405162461bcd60e51b815260206004820152601b60248201527f526563697069656e74206973206e6f742072656769737465726564000000000060448201526064016102ee565b6001600160a01b0381166000818152602081905260409020903314156109b45760405162461bcd60e51b815260206004820152602560248201527f596f752063616e6e6f742073656e642061207265717565737420746f20796f756044820152643939b2b63360d91b60648201526084016102ee565b60005b6006820154811015610a7157336001600160a01b03168260060182815481106109e2576109e2611ee3565b6000918252602090912001546001600160a01b03161415610a5f5760405162461bcd60e51b815260206004820152603160248201527f596f75206861766520616c72656164792073656e7420612072657175657374206044820152701d1bc81d1a1a5cc81c9958da5c1a595b9d607a1b60648201526084016102ee565b80610a6981611ef9565b9150506109b7565b5060068181018054600180820183556000928352602080842090920180546001600160a01b03199081163390811790925581855282845260408086209096018054938401815585529383902090910180546001600160a01b0388169416841790558351928352908201527f8e80944630a2faa57965ab9ebd299ad0b033ff10bf238eefa5531254f86a88e5910161059d565b60606000805b600254811015610beb57600060028281548110610b2857610b28611ee3565b60009182526020808320909101546001600160a01b0316808352600190915260409091206005015490915060ff168015610bc5575084604051602001610b6e9190611f22565b60408051601f1981840301815282825280516020918201206001600160a01b038516600090815260018352929092209192610bad926004019101611e22565b60405160208183030381529060405280519060200120145b15610bd85782610bd481611ef9565b9350505b5080610be381611ef9565b915050610b09565b5060008167ffffffffffffffff811115610c0757610c076119ef565b604051908082528060200260200182016040528015610c3a57816020015b6060815260200190600190039081610c255790505b5090506000915060005b600254811015610de857600060028281548110610c6357610c63611ee3565b60009182526020808320909101546001600160a01b0316808352600190915260409091206005015490915060ff168015610d00575085604051602001610ca99190611f22565b60408051601f1981840301815282825280516020918201206001600160a01b038516600090815260018352929092209192610ce8926004019101611e22565b60405160208183030381529060405280519060200120145b15610dd5576001600160a01b03811660009081526001602052604090206003018054610d2b90611de7565b80601f0160208091040260200160405190810160405280929190818152602001828054610d5790611de7565b8015610da45780601f10610d7957610100808354040283529160200191610da4565b820191906000526020600020905b815481529060010190602001808311610d8757829003601f168201915b5050505050838581518110610dbb57610dbb611ee3565b60200260200101819052508380610dd190611ef9565b9450505b5080610de081611ef9565b915050610c44565b509392505050565b33600081815260016020526040902054606091906001600160a01b0316610e545760405162461bcd60e51b8152602060048201526018602482015277111bdb9bdc881b5d5cdd081899481c9959da5cdd195c995960421b60448201526064016102ee565b6001600160a01b03811660009081526001602052604090206005015460ff16610eba5760405162461bcd60e51b8152602060048201526018602482015277111bdb9bdc881a5cc8185b1c9958591e481b585d18da195960421b60448201526064016102ee565b60035460009067ffffffffffffffff811115610ed857610ed86119ef565b604051908082528060200260200182016040528015610f01578160200160208202803683370190505b5090506000805b60035481101561102e57600060038281548110610f2757610f27611ee3565b60009182526020808320909101546001600160a01b03168083529082905260409091206005015490915060ff168015610fdd57506001600160a01b0385166000908152600160209081526040918290209151610f87926004019101611e22565b60408051601f1981840301815282825280516020918201206001600160a01b0385166000908152808352929092209192610fc5926004019101611e22565b60405160208183030381529060405280519060200120145b1561101b5780848481518110610ff557610ff5611ee3565b6001600160a01b03909216602092830291909101909101528261101781611ef9565b9350505b508061102681611ef9565b915050610f08565b50815292915050565b61109360405180610100016040528060006001600160a01b031681526020016060815260200160008152602001606081526020016060815260200160001515815260200160006001600160a01b03168152602001606081525090565b6001600160a01b0380831660009081526001602081815260408084208151610100810190925280549095168152918401805493949293918401916110d690611de7565b80601f016020809104026020016040519081016040528092919081815260200182805461110290611de7565b801561114f5780601f106111245761010080835404028352916020019161114f565b820191906000526020600020905b81548152906001019060200180831161113257829003601f168201915b505050505081526020016002820154815260200160038201805461117290611de7565b80601f016020809104026020016040519081016040528092919081815260200182805461119e90611de7565b80156111eb5780601f106111c0576101008083540402835291602001916111eb565b820191906000526020600020905b8154815290600101906020018083116111ce57829003601f168201915b5050505050815260200160048201805461120490611de7565b80601f016020809104026020016040519081016040528092919081815260200182805461123090611de7565b801561127d5780601f106112525761010080835404028352916020019161127d565b820191906000526020600020905b81548152906001019060200180831161126057829003601f168201915b5050509183525050600582015460ff811615156020808401919091526101009091046001600160a01b0316604080840191909152600684018054825181850281018501909352808352606090940193919290919083018282801561130a57602002820191906000526020600020905b81546001600160a01b031681526001909101906020018083116112ec575b50505091909252509195945050505050565b61137860405180610100016040528060006001600160a01b031681526020016060815260200160008152602001606081526020016060815260200160001515815260200160006001600160a01b03168152602001606081525090565b6001600160a01b0380831660009081526020818152604080832081516101008101909252805490941681526001840180549394919391928401916110d690611de7565b6001602081905260009182526040909120805491810180546001600160a01b03909316926113e890611de7565b80601f016020809104026020016040519081016040528092919081815260200182805461141490611de7565b80156114615780601f1061143657610100808354040283529160200191611461565b820191906000526020600020905b81548152906001019060200180831161144457829003601f168201915b50505050509080600201549080600301805461147c90611de7565b80601f01602080910402602001604051908101604052809291908181526020018280546114a890611de7565b80156114f55780601f106114ca576101008083540402835291602001916114f5565b820191906000526020600020905b8154815290600101906020018083116114d857829003601f168201915b50505050509080600401805461150a90611de7565b80601f016020809104026020016040519081016040528092919081815260200182805461153690611de7565b80156115835780601f1061155857610100808354040283529160200191611583565b820191906000526020600020905b81548152906001019060200180831161156657829003601f168201915b5050506005909301549192505060ff8116906001600160a01b036101009091041687565b60008451116115eb5760405162461bcd60e51b815260206004820152601060248201526f13985b59481a5cc81c995c5d5a5c995960821b60448201526064016102ee565b601283101561163c5760405162461bcd60e51b815260206004820152601b60248201527f416765206d7573742062652067726561746572207468616e203138000000000060448201526064016102ee565b60008251116116865760405162461bcd60e51b815260206004820152601660248201527513dc99d85b881d1e5c19481a5cc81c995c5d5a5c995960521b60448201526064016102ee565b336000908152600160205260409020546001600160a01b0316156116ec5760405162461bcd60e51b815260206004820152601b60248201527f446f6e6f7220697320616c72656164792072656769737465726564000000000060448201526064016102ee565b6040805161010081018252338082526020808301888152838501889052606080850187905260808501889052600160a08601819052600060c0870181905260e0870183905294855280845295909320845181546001600160a01b0319166001600160a01b039091161781559051805193959193611771939285019291909101906118b8565b5060408201516002820155606082015180516117979160038401916020909101906118b8565b50608082015180516117b39160048401916020909101906118b8565b5060a082015160058201805460c08501516001600160a01b031661010002610100600160a81b0319931515939093166001600160a81b03199091161791909117905560e0820151805161181091600684019160209091019061193c565b5050600280546001810182556000919091527f405787fa12a823e0f2b7631cc41b3ba8828b3321ca811111fa75cd3aa3bb5ace0180546001600160a01b031916339081179091556040519091507f7cefa9d45415496742c108166cfd8e4bae2f2089a47b4b375e65d407bdbdace5906108c89088908790611ebe565b600060208190529081526040902080546001820180546001600160a01b0390921692916113e890611de7565b8280546118c490611de7565b90600052602060002090601f0160209004810192826118e6576000855561192c565b82601f106118ff57805160ff191683800117855561192c565b8280016001018555821561192c579182015b8281111561192c578251825591602001919060010190611911565b50611938929150611991565b5090565b82805482825590600052602060002090810192821561192c579160200282015b8281111561192c57825182546001600160a01b0319166001600160a01b0390911617825560209092019160019091019061195c565b5b808211156119385760008155600101611992565b6000602082840312156119b857600080fd5b81356001600160a01b03811681146119cf57600080fd5b9392505050565b6000602082840312156119e857600080fd5b5035919050565b634e487b7160e01b600052604160045260246000fd5b600082601f830112611a1657600080fd5b813567ffffffffffffffff80821115611a3157611a316119ef565b604051601f8301601f19908116603f01168101908282118183101715611a5957611a596119ef565b81604052838152866020858801011115611a7257600080fd5b836020870160208301376000602085830101528094505050505092915050565b60008060008060808587031215611aa857600080fd5b843567ffffffffffffffff80821115611ac057600080fd5b611acc88838901611a05565b9550602087013594506040870135915080821115611ae957600080fd5b611af588838901611a05565b93506060870135915080821115611b0b57600080fd5b50611b1887828801611a05565b91505092959194509250565b600060208284031215611b3657600080fd5b813567ffffffffffffffff811115611b4d57600080fd5b611b5984828501611a05565b949350505050565b60005b83811015611b7c578181015183820152602001611b64565b83811115611b8b576000848401525b50505050565b60008151808452611ba9816020860160208601611b61565b601f01601f19169290920160200192915050565b6000602080830181845280855180835260408601915060408160051b870101925083870160005b82811015611c1257603f19888603018452611c00858351611b91565b94509285019290850190600101611be4565b5092979650505050505050565b6020808252825182820181905260009190848201906040850190845b81811015611c605783516001600160a01b031683529284019291840191600101611c3b565b50909695505050505050565b600081518084526020808501945080840160005b83811015611ca55781516001600160a01b031687529582019590820190600101611c80565b509495945050505050565b80516001600160a01b0316825260006101006020830151816020860152611cd982860182611b91565b9150506040830151604085015260608301518482036060860152611cfd8282611b91565b91505060808301518482036080860152611d178282611b91565b91505060a0830151611d2d60a086018215159052565b5060c0830151611d4860c08601826001600160a01b03169052565b5060e083015184820360e0860152611d608282611c6c565b95945050505050565b6020815260006119cf6020830184611cb0565b600060018060a01b03808a16835260e06020840152611d9e60e084018a611b91565b8860408501528381036060850152611db68189611b91565b90508381036080850152611dca8188611b91565b95151560a0850152509290921660c0909101525095945050505050565b600181811c90821680611dfb57607f821691505b60208210811415611e1c57634e487b7160e01b600052602260045260246000fd5b50919050565b600080835481600182811c915080831680611e3e57607f831692505b6020808410821415611e5e57634e487b7160e01b86526022600452602486fd5b818015611e725760018114611e8357611eb0565b60ff19861689528489019650611eb0565b60008a81526020902060005b86811015611ea85781548b820152908501908301611e8f565b505084890196505b509498975050505050505050565b604081526000611ed16040830185611b91565b8281036020840152611d608185611b91565b634e487b7160e01b600052603260045260246000fd5b6000600019821415611f1b57634e487b7160e01b600052601160045260246000fd5b5060010190565b60008251611f34818460208701611b61565b919091019291505056fea2646970667358221220438e7d5210d38faa933f8d61b02475d679515397f01e065c7b0b2ea4af0ddefd64736f6c63430008090033",
  "linkReferences": {},
  "deployedLinkReferences": {}
}