{
  "_format": "hh-sol-artifact-1",
  "contractName": "OrganDonation",
  "sourceName": "contracts/OrganDonation.sol",
  "address": "0x5fbcAB2a3eeA638E1B6484B6BB26791334ddD4Dd",
  "abi": [
    {
      "anonymous": false,
      "inputs": [
        {
          "indexed": true,
          "internalType": "address",
          "name": "donorAddress",
          "type": "address"
        },
        {
          "indexed": false,
          "internalType": "string",
          "name": "name",
          "type": "string"
        },
        {
          "indexed": false,
          "internalType": "string",
          "name": "organType",
          "type": "string"
        }
      ],
      "name": "DonorRegistered",
      "type": "event"
    },
    {
      "anonymous": false,
      "inputs": [
        {
          "indexed": false,
          "internalType": "address",
          "name": "donor",
          "type": "address"
        },
        {
          "indexed": false,
          "internalType": "address",
          "name": "recipient",
          "type": "address"
        }
      ],
      "name": "MatchSuccessful",
      "type": "event"
    },
    {
      "anonymous": false,
      "inputs": [
        {
          "indexed": true,
          "internalType": "address",
          "name": "recipientAddress",
          "type": "address"
        },
        {
          "indexed": false,
          "internalType": "string",
          "name": "name",
          "type": "string"
        },
        {
          "indexed": false,
          "internalType": "string",
          "name": "organType",
          "type": "string"
        }
      ],
      "name": "RecipientRegistered",
      "type": "event"
    },
    {
      "anonymous": false,
      "inputs": [
        {
          "indexed": false,
          "internalType": "address",
          "name": "recipient",
          "type": "address"
        },
        {
          "indexed": false,
          "internalType": "address",
          "name": "donor",
          "type": "address"
        }
      ],
      "name": "RequestSent",
      "type": "event"
    },
    {
      "inputs": [
        {
          "internalType": "uint256",
          "name": "",
          "type": "uint256"
        }
      ],
      "name": "donorAddresses",
      "outputs": [
        {
          "internalType": "address",
          "name": "",
          "type": "address"
        }
      ],
      "stateMutability": "view",
      "type": "function"
    },
    {
      "inputs": [
        {
          "internalType": "address",
          "name": "",
          "type": "address"
        }
      ],
      "name": "donors",
      "outputs": [
        {
          "internalType": "address",
          "name": "selfAddress",
          "type": "address"
        },
        {
          "internalType": "string",
          "name": "name",
          "type": "string"
        },
        {
          "internalType": "uint256",
          "name": "age",
          "type": "uint256"
        },
        {
          "internalType": "string",
          "name": "email",
          "type": "string"
        },
        {
          "internalType": "string",
          "name": "organType",
          "type": "string"
        },
        {
          "internalType": "bool",
          "name": "isAvailable",
          "type": "bool"
        },
        {
          "internalType": "address",
          "name": "matchedAddress",
          "type": "address"
        }
      ],
      "stateMutability": "view",
      "type": "function"
    },
    {
      "inputs": [],
      "name": "findMatch",
      "outputs": [
        {
          "internalType": "address[]",
          "name": "",
          "type": "address[]"
        }
      ],
      "stateMutability": "view",
      "type": "function"
    },
    {
      "inputs": [
        {
          "internalType": "address",
          "name": "_address",
          "type": "address"
        }
      ],
      "name": "getDonorDetails",
      "outputs": [
        {
          "components": [
            {
              "internalType": "address",
              "name": "selfAddress",
              "type": "address"
            },
            {
              "internalType": "string",
              "name": "name",
              "type": "string"
            },
            {
              "internalType": "uint256",
              "name": "age",
              "type": "uint256"
            },
            {
              "internalType": "string",
              "name": "email",
              "type": "string"
            },
            {
              "internalType": "string",
              "name": "organType",
              "type": "string"
            },
            {
              "internalType": "bool",
              "name": "isAvailable",
              "type": "bool"
            },
            {
              "internalType": "address",
              "name": "matchedAddress",
              "type": "address"
            },
            {
              "internalType": "address[]",
              "name": "sentRequests",
              "type": "address[]"
            }
          ],
          "internalType": "struct OrganDonation.Donor",
          "name": "",
          "type": "tuple"
        }
      ],
      "stateMutability": "view",
      "type": "function"
    },
    {
      "inputs": [
        {
          "internalType": "address",
          "name": "_address",
          "type": "address"
        }
      ],
      "name": "getRecipientDetails",
      "outputs": [
        {
          "components": [
            {
              "internalType": "address",
              "name": "selfAddress",
              "type": "address"
            },
            {
              "internalType": "string",
              "name": "name",
              "type": "string"
            },
            {
              "internalType": "uint256",
              "name": "age",
              "type": "uint256"
            },
            {
              "internalType": "string",
              "name": "email",
              "type": "string"
            },
            {
              "internalType": "string",
              "name": "organType",
              "type": "string"
            },
            {
              "internalType": "bool",
              "name": "isAvailable",
              "type": "bool"
            },
            {
              "internalType": "address",
              "name": "matchAddress",
              "type": "address"
            },
            {
              "internalType": "address[]",
              "name": "requests",
              "type": "address[]"
            }
          ],
          "internalType": "struct OrganDonation.Recipient",
          "name": "",
          "type": "tuple"
        }
      ],
      "stateMutability": "view",
      "type": "function"
    },
    {
      "inputs": [
        {
          "internalType": "address",
          "name": "_userAddress",
          "type": "address"
        }
      ],
      "name": "isDonorRegistered",
      "outputs": [
        {
          "internalType": "bool",
          "name": "",
          "type": "bool"
        }
      ],
      "stateMutability": "view",
      "type": "function"
    },
    {
      "inputs": [
        {
          "internalType": "address",
          "name": "_userAddress",
          "type": "address"
        }
      ],
      "name": "isRecipientRegistered",
      "outputs": [
        {
          "internalType": "bool",
          "name": "",
          "type": "bool"
        }
      ],
      "stateMutability": "view",
      "type": "function"
    },
    {
      "inputs": [
        {
          "internalType": "uint256",
          "name": "",
          "type": "uint256"
        }
      ],
      "name": "recipientAddresses",
      "outputs": [
        {
          "internalType": "address",
          "name": "",
          "type": "address"
        }
      ],
      "stateMutability": "view",
      "type": "function"
    },
    {
      "inputs": [
        {
          "internalType": "address",
          "name": "",
          "type": "address"
        }
      ],
      "name": "recipients",
      "outputs": [
        {
          "internalType": "address",
          "name": "selfAddress",
          "type": "address"
        },
        {
          "internalType": "string",
          "name": "name",
          "type": "string"
        },
        {
          "internalType": "uint256",
          "name": "age",
          "type": "uint256"
        },
        {
          "internalType": "string",
          "name": "email",
          "type": "string"
        },
        {
          "internalType": "string",
          "name": "organType",
          "type": "string"
        },
        {
          "internalType": "bool",
          "name": "isAvailable",
          "type": "bool"
        },
        {
          "internalType": "address",
          "name": "matchAddress",
          "type": "address"
        }
      ],
      "stateMutability": "view",
      "type": "function"
    },
    {
      "inputs": [
        {
          "internalType": "string",
          "name": "_name",
          "type": "string"
        },
        {
          "internalType": "uint256",
          "name": "_age",
          "type": "uint256"
        },
        {
          "internalType": "string",
          "name": "_organType",
          "type": "string"
        },
        {
          "internalType": "string",
          "name": "_email",
          "type": "string"
        }
      ],
      "name": "registerDonor",
      "outputs": [],
      "stateMutability": "nonpayable",
      "type": "function"
    },
    {
      "inputs": [
        {
          "internalType": "string",
          "name": "_name",
          "type": "string"
        },
        {
          "internalType": "uint256",
          "name": "_age",
          "type": "uint256"
        },
        {
          "internalType": "string",
          "name": "_organType",
          "type": "string"
        },
        {
          "internalType": "string",
          "name": "_email",
          "type": "string"
        }
      ],
      "name": "registerRecipient",
      "outputs": [],
      "stateMutability": "nonpayable",
      "type": "function"
    },
    {
      "inputs": [
        {
          "internalType": "address",
          "name": "_recipientAddress",
          "type": "address"
        }
      ],
      "name": "sendRequest",
      "outputs": [],
      "stateMutability": "nonpayable",
      "type": "function"
    },
    {
      "inputs": [
        {
          "internalType": "address",
          "name": "_donorAddress",
          "type": "address"
        }
      ],
      "name": "tryMatch",
      "outputs": [],
      "stateMutability": "nonpayable",
      "type": "function"
    }
  ],
  "bytecode": "0x608060405234801561001057600080fd5b50611b82806100206000396000f3fe608060405234801561001057600080fd5b50600436106100cf5760003560e01c806385e1b15b1161008c578063b9bd12e411610066578063b9bd12e4146101f3578063ca0cdea814610206578063dad9fef01461022c578063eb8203121461023f57600080fd5b806385e1b15b146101ab5780639935cd3c146101be578063afcb67d3146101d357600080fd5b80630c18f81e146100d4578063213e899f146100e95780632b2aee5d1461012c5780633beb128f146101575780636f08b7dd1461016a5780636fc6ad4114610198575b600080fd5b6100e76100e236600461167e565b610252565b005b6101176100f736600461167e565b6001600160a01b0390811660009081526001602052604090205416151590565b60405190151581526020015b60405180910390f35b61013f61013a3660046116ae565b61056e565b6040516001600160a01b039091168152602001610123565b61013f6101653660046116ae565b610598565b61011761017836600461167e565b6001600160a01b0390811660009081526020819052604090205416151590565b6100e76101a636600461176a565b6105a8565b6100e76101b936600461167e565b61089c565b6101c6610ac8565b60405161012391906117fc565b6101e66101e136600461167e565b610d0f565b6040516101239190611993565b6101e661020136600461167e565b610ff4565b61021961021436600461167e565b611093565b60405161012397969594939291906119a6565b6100e761023a36600461176a565b61127f565b61021961024d36600461167e565b611564565b336000818152602081905260409020546001600160a01b03166102bc5760405162461bcd60e51b815260206004820152601c60248201527f526563697069656e74206d75737420626520726567697374657265640000000060448201526064015b60405180910390fd5b6001600160a01b038083166000908152600160205260409020541661031e5760405162461bcd60e51b8152602060048201526018602482015277111bdb9bdc881b5d5cdd081899481c9959da5cdd195c995960421b60448201526064016102b3565b6001600160a01b03821660009081526001602052604090206005015460ff166103845760405162461bcd60e51b8152602060048201526018602482015277111bdb9bdc881a5cc8185b1c9958591e481b585d18da195960421b60448201526064016102b3565b6001600160a01b03811660009081526020819052604090206005015460ff166104015760405162461bcd60e51b815260206004820152602960248201527f526563697069656e74206973206e6f7420617661696c61626c6520666f722061604482015268103a3930b739b332b960b91b60648201526084016102b3565b6001600160a01b03811660009081526020818152604091829020915161042b926004019101611a4c565b60408051601f1981840301815282825280516020918201206001600160a01b03861660009081526001835292909220919261046a926004019101611a4c565b60405160208183030381529060405280519060200120146104cd5760405162461bcd60e51b815260206004820152601860248201527f4f7267616e20747970657320646f206e6f74206d61746368000000000000000060448201526064016102b3565b6001600160a01b0382811660008181526001602090815260408083206005908101805460ff19908116825596881680865285855294839020909101805490961686558054610100808602610100600160a81b031992831617909255865491860291161790945583519182528101919091527f67bf4c9cafec73f79599e54d1ae0193423aa82029ae3b941bf75e91f24455a9691015b60405180910390a15050565b6002818154811061057e57600080fd5b6000918252602090912001546001600160a01b0316905081565b6003818154811061057e57600080fd5b60008451116105ec5760405162461bcd60e51b815260206004820152601060248201526f13985b59481a5cc81c995c5d5a5c995960821b60448201526064016102b3565b601283101561063d5760405162461bcd60e51b815260206004820152601b60248201527f416765206d7573742062652067726561746572207468616e203138000000000060448201526064016102b3565b60008251116106875760405162461bcd60e51b815260206004820152601660248201527513dc99d85b881d1e5c19481a5cc81c995c5d5a5c995960521b60448201526064016102b3565b336000908152602081905260409020546001600160a01b0316156106ed5760405162461bcd60e51b815260206004820152601f60248201527f526563697069656e7420697320616c726561647920726567697374657265640060448201526064016102b3565b6040805161010081018252338082526020808301888152838501889052606080850187905260808501889052600160a08601819052600060c0870181905260e0870183905294855284845295909320845181546001600160a01b0319166001600160a01b03909116178155905180519395919361077293928501929190910190611590565b506040820151600282015560608201518051610798916003840191602090910190611590565b50608082015180516107b4916004840191602090910190611590565b5060a082015160058201805460c08501516001600160a01b031661010002610100600160a81b0319931515939093166001600160a81b03199091161791909117905560e08201518051610811916006840191602090910190611614565b5050600380546001810182556000919091527fc2575a0e9e593c00f959f8c92f12db2869c3395a3b0502d05e2516446f71f85b0180546001600160a01b031916339081179091556040519091507f3d6c00385d301f1858baacd01dda41805dc22f9eab6b3c86afd92e8b57c8502b9061088d9088908790611ae8565b60405180910390a25050505050565b6001600160a01b03808216600090815260208190526040902054166109035760405162461bcd60e51b815260206004820152601b60248201527f526563697069656e74206973206e6f742072656769737465726564000000000060448201526064016102b3565b6001600160a01b0381166000818152602081905260409020903314156109795760405162461bcd60e51b815260206004820152602560248201527f596f752063616e6e6f742073656e642061207265717565737420746f20796f756044820152643939b2b63360d91b60648201526084016102b3565b60005b6006820154811015610a3657336001600160a01b03168260060182815481106109a7576109a7611b0d565b6000918252602090912001546001600160a01b03161415610a245760405162461bcd60e51b815260206004820152603160248201527f596f75206861766520616c72656164792073656e7420612072657175657374206044820152701d1bc81d1a1a5cc81c9958da5c1a595b9d607a1b60648201526084016102b3565b80610a2e81611b23565b91505061097c565b5060068181018054600180820183556000928352602080842090920180546001600160a01b03199081163390811790925581855282845260408086209096018054938401815585529383902090910180546001600160a01b0388169416841790558351928352908201527f8e80944630a2faa57965ab9ebd299ad0b033ff10bf238eefa5531254f86a88e59101610562565b33600081815260016020526040902054606091906001600160a01b0316610b2c5760405162461bcd60e51b8152602060048201526018602482015277111bdb9bdc881b5d5cdd081899481c9959da5cdd195c995960421b60448201526064016102b3565b6001600160a01b03811660009081526001602052604090206005015460ff16610b925760405162461bcd60e51b8152602060048201526018602482015277111bdb9bdc881a5cc8185b1c9958591e481b585d18da195960421b60448201526064016102b3565b60035460009067ffffffffffffffff811115610bb057610bb06116c7565b604051908082528060200260200182016040528015610bd9578160200160208202803683370190505b5090506000805b600354811015610d0657600060038281548110610bff57610bff611b0d565b60009182526020808320909101546001600160a01b03168083529082905260409091206005015490915060ff168015610cb557506001600160a01b0385166000908152600160209081526040918290209151610c5f926004019101611a4c565b60408051601f1981840301815282825280516020918201206001600160a01b0385166000908152808352929092209192610c9d926004019101611a4c565b60405160208183030381529060405280519060200120145b15610cf35780848481518110610ccd57610ccd611b0d565b6001600160a01b039092166020928302919091019091015282610cef81611b23565b9350505b5080610cfe81611b23565b915050610be0565b50815292915050565b610d6b60405180610100016040528060006001600160a01b031681526020016060815260200160008152602001606081526020016060815260200160001515815260200160006001600160a01b03168152602001606081525090565b6001600160a01b038083166000908152600160208181526040808420815161010081019092528054909516815291840180549394929391840191610dae90611a11565b80601f0160208091040260200160405190810160405280929190818152602001828054610dda90611a11565b8015610e275780601f10610dfc57610100808354040283529160200191610e27565b820191906000526020600020905b815481529060010190602001808311610e0a57829003601f168201915b5050505050815260200160028201548152602001600382018054610e4a90611a11565b80601f0160208091040260200160405190810160405280929190818152602001828054610e7690611a11565b8015610ec35780601f10610e9857610100808354040283529160200191610ec3565b820191906000526020600020905b815481529060010190602001808311610ea657829003601f168201915b50505050508152602001600482018054610edc90611a11565b80601f0160208091040260200160405190810160405280929190818152602001828054610f0890611a11565b8015610f555780601f10610f2a57610100808354040283529160200191610f55565b820191906000526020600020905b815481529060010190602001808311610f3857829003601f168201915b5050509183525050600582015460ff811615156020808401919091526101009091046001600160a01b03166040808401919091526006840180548251818502810185019093528083526060909401939192909190830182828015610fe257602002820191906000526020600020905b81546001600160a01b03168152600190910190602001808311610fc4575b50505091909252509195945050505050565b61105060405180610100016040528060006001600160a01b031681526020016060815260200160008152602001606081526020016060815260200160001515815260200160006001600160a01b03168152602001606081525090565b6001600160a01b038083166000908152602081815260408083208151610100810190925280549094168152600184018054939491939192840191610dae90611a11565b6001602081905260009182526040909120805491810180546001600160a01b03909316926110c090611a11565b80601f01602080910402602001604051908101604052809291908181526020018280546110ec90611a11565b80156111395780601f1061110e57610100808354040283529160200191611139565b820191906000526020600020905b81548152906001019060200180831161111c57829003601f168201915b50505050509080600201549080600301805461115490611a11565b80601f016020809104026020016040519081016040528092919081815260200182805461118090611a11565b80156111cd5780601f106111a2576101008083540402835291602001916111cd565b820191906000526020600020905b8154815290600101906020018083116111b057829003601f168201915b5050505050908060040180546111e290611a11565b80601f016020809104026020016040519081016040528092919081815260200182805461120e90611a11565b801561125b5780601f106112305761010080835404028352916020019161125b565b820191906000526020600020905b81548152906001019060200180831161123e57829003601f168201915b5050506005909301549192505060ff8116906001600160a01b036101009091041687565b60008451116112c35760405162461bcd60e51b815260206004820152601060248201526f13985b59481a5cc81c995c5d5a5c995960821b60448201526064016102b3565b60128310156113145760405162461bcd60e51b815260206004820152601b60248201527f416765206d7573742062652067726561746572207468616e203138000000000060448201526064016102b3565b600082511161135e5760405162461bcd60e51b815260206004820152601660248201527513dc99d85b881d1e5c19481a5cc81c995c5d5a5c995960521b60448201526064016102b3565b336000908152600160205260409020546001600160a01b0316156113c45760405162461bcd60e51b815260206004820152601b60248201527f446f6e6f7220697320616c72656164792072656769737465726564000000000060448201526064016102b3565b6040805161010081018252338082526020808301888152838501889052606080850187905260808501889052600160a08601819052600060c0870181905260e0870183905294855280845295909320845181546001600160a01b0319166001600160a01b03909116178155905180519395919361144993928501929190910190611590565b50604082015160028201556060820151805161146f916003840191602090910190611590565b506080820151805161148b916004840191602090910190611590565b5060a082015160058201805460c08501516001600160a01b031661010002610100600160a81b0319931515939093166001600160a81b03199091161791909117905560e082015180516114e8916006840191602090910190611614565b5050600280546001810182556000919091527f405787fa12a823e0f2b7631cc41b3ba8828b3321ca811111fa75cd3aa3bb5ace0180546001600160a01b031916339081179091556040519091507f7cefa9d45415496742c108166cfd8e4bae2f2089a47b4b375e65d407bdbdace59061088d9088908790611ae8565b600060208190529081526040902080546001820180546001600160a01b0390921692916110c090611a11565b82805461159c90611a11565b90600052602060002090601f0160209004810192826115be5760008555611604565b82601f106115d757805160ff1916838001178555611604565b82800160010185558215611604579182015b828111156116045782518255916020019190600101906115e9565b50611610929150611669565b5090565b828054828255906000526020600020908101928215611604579160200282015b8281111561160457825182546001600160a01b0319166001600160a01b03909116178255602090920191600190910190611634565b5b80821115611610576000815560010161166a565b60006020828403121561169057600080fd5b81356001600160a01b03811681146116a757600080fd5b9392505050565b6000602082840312156116c057600080fd5b5035919050565b634e487b7160e01b600052604160045260246000fd5b600082601f8301126116ee57600080fd5b813567ffffffffffffffff80821115611709576117096116c7565b604051601f8301601f19908116603f01168101908282118183101715611731576117316116c7565b8160405283815286602085880101111561174a57600080fd5b836020870160208301376000602085830101528094505050505092915050565b6000806000806080858703121561178057600080fd5b843567ffffffffffffffff8082111561179857600080fd5b6117a4888389016116dd565b95506020870135945060408701359150808211156117c157600080fd5b6117cd888389016116dd565b935060608701359150808211156117e357600080fd5b506117f0878288016116dd565b91505092959194509250565b6020808252825182820181905260009190848201906040850190845b8181101561183d5783516001600160a01b031683529284019291840191600101611818565b50909695505050505050565b6000815180845260005b8181101561186f57602081850181015186830182015201611853565b81811115611881576000602083870101525b50601f01601f19169290920160200192915050565b600081518084526020808501945080840160005b838110156118cf5781516001600160a01b0316875295820195908201906001016118aa565b509495945050505050565b80516001600160a01b031682526000610100602083015181602086015261190382860182611849565b91505060408301516040850152606083015184820360608601526119278282611849565b915050608083015184820360808601526119418282611849565b91505060a083015161195760a086018215159052565b5060c083015161197260c08601826001600160a01b03169052565b5060e083015184820360e086015261198a8282611896565b95945050505050565b6020815260006116a760208301846118da565b600060018060a01b03808a16835260e060208401526119c860e084018a611849565b88604085015283810360608501526119e08189611849565b905083810360808501526119f48188611849565b95151560a0850152509290921660c0909101525095945050505050565b600181811c90821680611a2557607f821691505b60208210811415611a4657634e487b7160e01b600052602260045260246000fd5b50919050565b600080835481600182811c915080831680611a6857607f831692505b6020808410821415611a8857634e487b7160e01b86526022600452602486fd5b818015611a9c5760018114611aad57611ada565b60ff19861689528489019650611ada565b60008a81526020902060005b86811015611ad25781548b820152908501908301611ab9565b505084890196505b509498975050505050505050565b604081526000611afb6040830185611849565b828103602084015261198a8185611849565b634e487b7160e01b600052603260045260246000fd5b6000600019821415611b4557634e487b7160e01b600052601160045260246000fd5b506001019056fea2646970667358221220dd5c3ee309a2ef83f67b0e30bc1c0a3e20e2a5925666254130ebc49529770e9a64736f6c63430008090033",
  "linkReferences": {},
  "deployedLinkReferences": {}
}